{
  "_format": "hh-sol-artifact-1",
  "contractName": "NebulaIDNFT",
  "sourceName": "contracts/NebulaID.sol",
  "abi": [
    {
      "inputs": [],
      "stateMutability": "nonpayable",
      "type": "constructor"
    },
    {
      "inputs": [
        {
          "internalType": "address",
          "name": "sender",
          "type": "address"
        },
        {
          "internalType": "uint256",
          "name": "tokenId",
          "type": "uint256"
        },
        {
          "internalType": "address",
          "name": "owner",
          "type": "address"
        }
      ],
      "name": "ERC721IncorrectOwner",
      "type": "error"
    },
    {
      "inputs": [
        {
          "internalType": "address",
          "name": "operator",
          "type": "address"
        },
        {
          "internalType": "uint256",
          "name": "tokenId",
          "type": "uint256"
        }
      ],
      "name": "ERC721InsufficientApproval",
      "type": "error"
    },
    {
      "inputs": [
        {
          "internalType": "address",
          "name": "approver",
          "type": "address"
        }
      ],
      "name": "ERC721InvalidApprover",
      "type": "error"
    },
    {
      "inputs": [
        {
          "internalType": "address",
          "name": "operator",
          "type": "address"
        }
      ],
      "name": "ERC721InvalidOperator",
      "type": "error"
    },
    {
      "inputs": [
        {
          "internalType": "address",
          "name": "owner",
          "type": "address"
        }
      ],
      "name": "ERC721InvalidOwner",
      "type": "error"
    },
    {
      "inputs": [
        {
          "internalType": "address",
          "name": "receiver",
          "type": "address"
        }
      ],
      "name": "ERC721InvalidReceiver",
      "type": "error"
    },
    {
      "inputs": [
        {
          "internalType": "address",
          "name": "sender",
          "type": "address"
        }
      ],
      "name": "ERC721InvalidSender",
      "type": "error"
    },
    {
      "inputs": [
        {
          "internalType": "uint256",
          "name": "tokenId",
          "type": "uint256"
        }
      ],
      "name": "ERC721NonexistentToken",
      "type": "error"
    },
    {
      "inputs": [
        {
          "internalType": "address",
          "name": "owner",
          "type": "address"
        }
      ],
      "name": "OwnableInvalidOwner",
      "type": "error"
    },
    {
      "inputs": [
        {
          "internalType": "address",
          "name": "account",
          "type": "address"
        }
      ],
      "name": "OwnableUnauthorizedAccount",
      "type": "error"
    },
    {
      "anonymous": false,
      "inputs": [
        {
          "indexed": true,
          "internalType": "address",
          "name": "owner",
          "type": "address"
        },
        {
          "indexed": true,
          "internalType": "address",
          "name": "approved",
          "type": "address"
        },
        {
          "indexed": true,
          "internalType": "uint256",
          "name": "tokenId",
          "type": "uint256"
        }
      ],
      "name": "Approval",
      "type": "event"
    },
    {
      "anonymous": false,
      "inputs": [
        {
          "indexed": true,
          "internalType": "address",
          "name": "owner",
          "type": "address"
        },
        {
          "indexed": true,
          "internalType": "address",
          "name": "operator",
          "type": "address"
        },
        {
          "indexed": false,
          "internalType": "bool",
          "name": "approved",
          "type": "bool"
        }
      ],
      "name": "ApprovalForAll",
      "type": "event"
    },
    {
      "anonymous": false,
      "inputs": [
        {
          "indexed": true,
          "internalType": "uint256",
          "name": "tokenId",
          "type": "uint256"
        },
        {
          "indexed": true,
          "internalType": "address",
          "name": "user",
          "type": "address"
        }
      ],
      "name": "IdentityUpdated",
      "type": "event"
    },
    {
      "anonymous": false,
      "inputs": [
        {
          "indexed": true,
          "internalType": "address",
          "name": "previousOwner",
          "type": "address"
        },
        {
          "indexed": true,
          "internalType": "address",
          "name": "newOwner",
          "type": "address"
        }
      ],
      "name": "OwnershipTransferred",
      "type": "event"
    },
    {
      "anonymous": false,
      "inputs": [
        {
          "indexed": true,
          "internalType": "address",
          "name": "from",
          "type": "address"
        },
        {
          "indexed": true,
          "internalType": "address",
          "name": "to",
          "type": "address"
        },
        {
          "indexed": true,
          "internalType": "uint256",
          "name": "tokenId",
          "type": "uint256"
        }
      ],
      "name": "Transfer",
      "type": "event"
    },
    {
      "inputs": [
        {
          "internalType": "address",
          "name": "to",
          "type": "address"
        },
        {
          "internalType": "uint256",
          "name": "tokenId",
          "type": "uint256"
        }
      ],
      "name": "approve",
      "outputs": [],
      "stateMutability": "nonpayable",
      "type": "function"
    },
    {
      "inputs": [
        {
          "internalType": "address",
          "name": "owner",
          "type": "address"
        }
      ],
      "name": "balanceOf",
      "outputs": [
        {
          "internalType": "uint256",
          "name": "",
          "type": "uint256"
        }
      ],
      "stateMutability": "view",
      "type": "function"
    },
    {
      "inputs": [
        {
          "internalType": "address",
          "name": "user",
          "type": "address"
        }
      ],
      "name": "canParticipateInGovernance",
      "outputs": [
        {
          "internalType": "bool",
          "name": "",
          "type": "bool"
        }
      ],
      "stateMutability": "view",
      "type": "function"
    },
    {
      "inputs": [
        {
          "internalType": "uint256",
          "name": "tokenId",
          "type": "uint256"
        }
      ],
      "name": "getApproved",
      "outputs": [
        {
          "internalType": "address",
          "name": "",
          "type": "address"
        }
      ],
      "stateMutability": "view",
      "type": "function"
    },
    {
      "inputs": [
        {
          "internalType": "uint256",
          "name": "tokenId",
          "type": "uint256"
        }
      ],
      "name": "getIdentity",
      "outputs": [
        {
          "components": [
            {
              "internalType": "bool",
              "name": "twitterVerified",
              "type": "bool"
            },
            {
              "internalType": "bool",
              "name": "humanVerified",
              "type": "bool"
            },
            {
              "internalType": "enum NebulaIDNFT.Nationality",
              "name": "nationality",
              "type": "uint8"
            },
            {
              "internalType": "enum NebulaIDNFT.HealthStatus",
              "name": "healthStatus",
              "type": "uint8"
            },
            {
              "internalType": "enum NebulaIDNFT.CreditScore",
              "name": "creditScore",
              "type": "uint8"
            },
            {
              "internalType": "uint256",
              "name": "walletScore",
              "type": "uint256"
            }
          ],
          "internalType": "struct NebulaIDNFT.NebulaIdentity",
          "name": "",
          "type": "tuple"
        }
      ],
      "stateMutability": "view",
      "type": "function"
    },
    {
      "inputs": [
        {
          "internalType": "address",
          "name": "user",
          "type": "address"
        }
      ],
      "name": "getUserTokenId",
      "outputs": [
        {
          "internalType": "uint256",
          "name": "",
          "type": "uint256"
        }
      ],
      "stateMutability": "view",
      "type": "function"
    },
    {
      "inputs": [
        {
          "internalType": "uint256",
          "name": "",
          "type": "uint256"
        }
      ],
      "name": "identities",
      "outputs": [
        {
          "internalType": "bool",
          "name": "twitterVerified",
          "type": "bool"
        },
        {
          "internalType": "bool",
          "name": "humanVerified",
          "type": "bool"
        },
        {
          "internalType": "enum NebulaIDNFT.Nationality",
          "name": "nationality",
          "type": "uint8"
        },
        {
          "internalType": "enum NebulaIDNFT.HealthStatus",
          "name": "healthStatus",
          "type": "uint8"
        },
        {
          "internalType": "enum NebulaIDNFT.CreditScore",
          "name": "creditScore",
          "type": "uint8"
        },
        {
          "internalType": "uint256",
          "name": "walletScore",
          "type": "uint256"
        }
      ],
      "stateMutability": "view",
      "type": "function"
    },
    {
      "inputs": [
        {
          "internalType": "address",
          "name": "owner",
          "type": "address"
        },
        {
          "internalType": "address",
          "name": "operator",
          "type": "address"
        }
      ],
      "name": "isApprovedForAll",
      "outputs": [
        {
          "internalType": "bool",
          "name": "",
          "type": "bool"
        }
      ],
      "stateMutability": "view",
      "type": "function"
    },
    {
      "inputs": [
        {
          "internalType": "bool",
          "name": "_twitterVerified",
          "type": "bool"
        },
        {
          "internalType": "bool",
          "name": "_humanVerified",
          "type": "bool"
        },
        {
          "internalType": "enum NebulaIDNFT.Nationality",
          "name": "_nationality",
          "type": "uint8"
        },
        {
          "internalType": "enum NebulaIDNFT.HealthStatus",
          "name": "_healthStatus",
          "type": "uint8"
        },
        {
          "internalType": "enum NebulaIDNFT.CreditScore",
          "name": "_creditScore",
          "type": "uint8"
        },
        {
          "internalType": "uint256",
          "name": "_walletScore",
          "type": "uint256"
        }
      ],
      "name": "mintNebulaID",
      "outputs": [],
      "stateMutability": "nonpayable",
      "type": "function"
    },
    {
      "inputs": [],
      "name": "name",
      "outputs": [
        {
          "internalType": "string",
          "name": "",
          "type": "string"
        }
      ],
      "stateMutability": "view",
      "type": "function"
    },
    {
      "inputs": [],
      "name": "owner",
      "outputs": [
        {
          "internalType": "address",
          "name": "",
          "type": "address"
        }
      ],
      "stateMutability": "view",
      "type": "function"
    },
    {
      "inputs": [
        {
          "internalType": "uint256",
          "name": "tokenId",
          "type": "uint256"
        }
      ],
      "name": "ownerOf",
      "outputs": [
        {
          "internalType": "address",
          "name": "",
          "type": "address"
        }
      ],
      "stateMutability": "view",
      "type": "function"
    },
    {
      "inputs": [],
      "name": "renounceOwnership",
      "outputs": [],
      "stateMutability": "nonpayable",
      "type": "function"
    },
    {
      "inputs": [
        {
          "internalType": "address",
          "name": "from",
          "type": "address"
        },
        {
          "internalType": "address",
          "name": "to",
          "type": "address"
        },
        {
          "internalType": "uint256",
          "name": "tokenId",
          "type": "uint256"
        }
      ],
      "name": "safeTransferFrom",
      "outputs": [],
      "stateMutability": "nonpayable",
      "type": "function"
    },
    {
      "inputs": [
        {
          "internalType": "address",
          "name": "from",
          "type": "address"
        },
        {
          "internalType": "address",
          "name": "to",
          "type": "address"
        },
        {
          "internalType": "uint256",
          "name": "tokenId",
          "type": "uint256"
        },
        {
          "internalType": "bytes",
          "name": "data",
          "type": "bytes"
        }
      ],
      "name": "safeTransferFrom",
      "outputs": [],
      "stateMutability": "nonpayable",
      "type": "function"
    },
    {
      "inputs": [
        {
          "internalType": "address",
          "name": "operator",
          "type": "address"
        },
        {
          "internalType": "bool",
          "name": "approved",
          "type": "bool"
        }
      ],
      "name": "setApprovalForAll",
      "outputs": [],
      "stateMutability": "nonpayable",
      "type": "function"
    },
    {
      "inputs": [
        {
          "internalType": "bytes4",
          "name": "interfaceId",
          "type": "bytes4"
        }
      ],
      "name": "supportsInterface",
      "outputs": [
        {
          "internalType": "bool",
          "name": "",
          "type": "bool"
        }
      ],
      "stateMutability": "view",
      "type": "function"
    },
    {
      "inputs": [],
      "name": "symbol",
      "outputs": [
        {
          "internalType": "string",
          "name": "",
          "type": "string"
        }
      ],
      "stateMutability": "view",
      "type": "function"
    },
    {
      "inputs": [
        {
          "internalType": "uint256",
          "name": "tokenId",
          "type": "uint256"
        }
      ],
      "name": "tokenURI",
      "outputs": [
        {
          "internalType": "string",
          "name": "",
          "type": "string"
        }
      ],
      "stateMutability": "view",
      "type": "function"
    },
    {
      "inputs": [
        {
          "internalType": "address",
          "name": "from",
          "type": "address"
        },
        {
          "internalType": "address",
          "name": "to",
          "type": "address"
        },
        {
          "internalType": "uint256",
          "name": "tokenId",
          "type": "uint256"
        }
      ],
      "name": "transferFrom",
      "outputs": [],
      "stateMutability": "nonpayable",
      "type": "function"
    },
    {
      "inputs": [
        {
          "internalType": "address",
          "name": "newOwner",
          "type": "address"
        }
      ],
      "name": "transferOwnership",
      "outputs": [],
      "stateMutability": "nonpayable",
      "type": "function"
    },
    {
      "inputs": [
        {
          "internalType": "address",
          "name": "user",
          "type": "address"
        },
        {
          "internalType": "bool",
          "name": "_twitterVerified",
          "type": "bool"
        },
        {
          "internalType": "bool",
          "name": "_humanVerified",
          "type": "bool"
        },
        {
          "internalType": "enum NebulaIDNFT.Nationality",
          "name": "_nationality",
          "type": "uint8"
        },
        {
          "internalType": "enum NebulaIDNFT.HealthStatus",
          "name": "_healthStatus",
          "type": "uint8"
        },
        {
          "internalType": "enum NebulaIDNFT.CreditScore",
          "name": "_creditScore",
          "type": "uint8"
        },
        {
          "internalType": "uint256",
          "name": "_walletScore",
          "type": "uint256"
        }
      ],
      "name": "updateIdentity",
      "outputs": [],
      "stateMutability": "nonpayable",
      "type": "function"
    },
    {
      "inputs": [
        {
          "internalType": "address",
          "name": "",
          "type": "address"
        }
      ],
      "name": "userToTokenId",
      "outputs": [
        {
          "internalType": "uint256",
          "name": "",
          "type": "uint256"
        }
      ],
      "stateMutability": "view",
      "type": "function"
    }
  ],
  "bytecode": "0x60806040523480156200001157600080fd5b50336040518060400160405280600881526020017f4e6562756c6149440000000000000000000000000000000000000000000000008152506040518060400160405280600381526020017f4e4944000000000000000000000000000000000000000000000000000000000081525081600090816200009091906200047a565b508060019081620000a291906200047a565b505050600073ffffffffffffffffffffffffffffffffffffffff168173ffffffffffffffffffffffffffffffffffffffff16036200011a5760006040517f1e4fbdf7000000000000000000000000000000000000000000000000000000008152600401620001119190620005a6565b60405180910390fd5b6200012b816200013a60201b60201c565b506001600781905550620005c3565b6000600660009054906101000a900473ffffffffffffffffffffffffffffffffffffffff16905081600660006101000a81548173ffffffffffffffffffffffffffffffffffffffff021916908373ffffffffffffffffffffffffffffffffffffffff1602179055508173ffffffffffffffffffffffffffffffffffffffff168173ffffffffffffffffffffffffffffffffffffffff167f8be0079c531659141344cd1fd0a4f28419497f9722a3daafe3b4186f6b6457e060405160405180910390a35050565b600081519050919050565b7f4e487b7100000000000000000000000000000000000000000000000000000000600052604160045260246000fd5b7f4e487b7100000000000000000000000000000000000000000000000000000000600052602260045260246000fd5b600060028204905060018216806200028257607f821691505b6020821081036200029857620002976200023a565b5b50919050565b60008190508160005260206000209050919050565b60006020601f8301049050919050565b600082821b905092915050565b600060088302620003027fffffffffffffffffffffffffffffffffffffffffffffffffffffffffffffffff82620002c3565b6200030e8683620002c3565b95508019841693508086168417925050509392505050565b6000819050919050565b6000819050919050565b60006200035b620003556200034f8462000326565b62000330565b62000326565b9050919050565b6000819050919050565b62000377836200033a565b6200038f620003868262000362565b848454620002d0565b825550505050565b600090565b620003a662000397565b620003b38184846200036c565b505050565b5b81811015620003db57620003cf6000826200039c565b600181019050620003b9565b5050565b601f8211156200042a57620003f4816200029e565b620003ff84620002b3565b810160208510156200040f578190505b620004276200041e85620002b3565b830182620003b8565b50505b505050565b600082821c905092915050565b60006200044f600019846008026200042f565b1980831691505092915050565b60006200046a83836200043c565b9150826002028217905092915050565b620004858262000200565b67ffffffffffffffff811115620004a157620004a06200020b565b5b620004ad825462000269565b620004ba828285620003df565b600060209050601f831160018114620004f25760008415620004dd578287015190505b620004e985826200045c565b86555062000559565b601f19841662000502866200029e565b60005b828110156200052c5784890151825560018201915060208501945060208101905062000505565b868310156200054c578489015162000548601f8916826200043c565b8355505b6001600288020188555050505b505050505050565b600073ffffffffffffffffffffffffffffffffffffffff82169050919050565b60006200058e8262000561565b9050919050565b620005a08162000581565b82525050565b6000602082019050620005bd600083018462000595565b92915050565b61310580620005d36000396000f3fe608060405234801561001057600080fd5b506004361061014d5760003560e01c8063715018a6116100c3578063b88d4fde1161007c578063b88d4fde146103ae578063c87b56dd146103ca578063e985e9c5146103fa578063eaaf77e61461042a578063f2fde38b1461045f578063fefd4e4f1461047b5761014d565b8063715018a6146102ec57806385e3f058146102f65780638da5cb5b1461032657806395d89b4114610344578063a22cb46514610362578063af24b07b1461037e5761014d565b806323b872dd1161011557806323b872dd14610208578063294f4a12146102245780633dbacb8f1461024057806342842e0e146102705780636352211e1461028c57806370a08231146102bc5761014d565b806301ffc9a71461015257806306fdde0314610182578063081812fc146101a0578063095ea7b3146101d05780630a9c5227146101ec575b600080fd5b61016c6004803603810190610167919061233b565b6104ab565b6040516101799190612383565b60405180910390f35b61018a61058d565b604051610197919061242e565b60405180910390f35b6101ba60048036038101906101b59190612486565b61061f565b6040516101c791906124f4565b60405180910390f35b6101ea60048036038101906101e5919061253b565b61063b565b005b61020660048036038101906102019190612616565b610651565b005b610222600480360381019061021d91906126b8565b610885565b005b61023e6004803603810190610239919061270b565b610987565b005b61025a60048036038101906102559190612798565b610c1a565b6040516102679190612383565b60405180910390f35b61028a600480360381019061028591906126b8565b610da0565b005b6102a660048036038101906102a19190612486565b610dc0565b6040516102b391906124f4565b60405180910390f35b6102d660048036038101906102d19190612798565b610dd2565b6040516102e391906127d4565b60405180910390f35b6102f4610e8c565b005b610310600480360381019061030b9190612486565b610ea0565b60405161031d919061298f565b60405180910390f35b61032e611006565b60405161033b91906124f4565b60405180910390f35b61034c611030565b604051610359919061242e565b60405180910390f35b61037c600480360381019061037791906129aa565b6110c2565b005b61039860048036038101906103939190612798565b6110d8565b6040516103a591906127d4565b60405180910390f35b6103c860048036038101906103c39190612b1f565b6110f0565b005b6103e460048036038101906103df9190612486565b61110d565b6040516103f1919061242e565b60405180910390f35b610414600480360381019061040f9190612ba2565b611176565b6040516104219190612383565b60405180910390f35b610444600480360381019061043f9190612486565b61120a565b60405161045696959493929190612c0f565b60405180910390f35b61047960048036038101906104749190612798565b611287565b005b61049560048036038101906104909190612798565b61130d565b6040516104a291906127d4565b60405180910390f35b60007f80ac58cd000000000000000000000000000000000000000000000000000000007bffffffffffffffffffffffffffffffffffffffffffffffffffffffff1916827bffffffffffffffffffffffffffffffffffffffffffffffffffffffff1916148061057657507f5b5e139f000000000000000000000000000000000000000000000000000000007bffffffffffffffffffffffffffffffffffffffffffffffffffffffff1916827bffffffffffffffffffffffffffffffffffffffffffffffffffffffff1916145b80610586575061058582611356565b5b9050919050565b60606000805461059c90612c9f565b80601f01602080910402602001604051908101604052809291908181526020018280546105c890612c9f565b80156106155780601f106105ea57610100808354040283529160200191610615565b820191906000526020600020905b8154815290600101906020018083116105f857829003601f168201915b5050505050905090565b600061062a826113c0565b5061063482611448565b9050919050565b61064d8282610648611485565b61148d565b5050565b61065961149f565b6000600960008973ffffffffffffffffffffffffffffffffffffffff1673ffffffffffffffffffffffffffffffffffffffff168152602001908152602001600020549050600081036106e0576040517f08c379a00000000000000000000000000000000000000000000000000000000081526004016106d790612d42565b60405180910390fd5b6040518060c001604052808815158152602001871515815260200186600281111561070e5761070d6127fe565b5b8152602001856002811115610726576107256127fe565b5b815260200184600281111561073e5761073d6127fe565b5b8152602001838152506008600083815260200190815260200160002060008201518160000160006101000a81548160ff02191690831515021790555060208201518160000160016101000a81548160ff02191690831515021790555060408201518160000160026101000a81548160ff021916908360028111156107c5576107c46127fe565b5b021790555060608201518160000160036101000a81548160ff021916908360028111156107f5576107f46127fe565b5b021790555060808201518160000160046101000a81548160ff02191690836002811115610825576108246127fe565b5b021790555060a082015181600101559050508773ffffffffffffffffffffffffffffffffffffffff16817f1d062ce1a176b0d02c6d822fe6ce70530048d31307004a77ceee5c275ef3b3b160405160405180910390a35050505050505050565b600073ffffffffffffffffffffffffffffffffffffffff168273ffffffffffffffffffffffffffffffffffffffff16036108f75760006040517f64a0ae920000000000000000000000000000000000000000000000000000000081526004016108ee91906124f4565b60405180910390fd5b600061090b8383610906611485565b611526565b90508373ffffffffffffffffffffffffffffffffffffffff168173ffffffffffffffffffffffffffffffffffffffff1614610981578382826040517f64283d7b00000000000000000000000000000000000000000000000000000000815260040161097893929190612d62565b60405180910390fd5b50505050565b6000600960003373ffffffffffffffffffffffffffffffffffffffff1673ffffffffffffffffffffffffffffffffffffffff1681526020019081526020016000205414610a09576040517f08c379a0000000000000000000000000000000000000000000000000000000008152600401610a0090612e0b565b60405180910390fd5b60006007549050610a1a3382611740565b80600960003373ffffffffffffffffffffffffffffffffffffffff1673ffffffffffffffffffffffffffffffffffffffff168152602001908152602001600020819055506040518060c0016040528088151581526020018715158152602001866002811115610a8c57610a8b6127fe565b5b8152602001856002811115610aa457610aa36127fe565b5b8152602001846002811115610abc57610abb6127fe565b5b8152602001838152506008600083815260200190815260200160002060008201518160000160006101000a81548160ff02191690831515021790555060208201518160000160016101000a81548160ff02191690831515021790555060408201518160000160026101000a81548160ff02191690836002811115610b4357610b426127fe565b5b021790555060608201518160000160036101000a81548160ff02191690836002811115610b7357610b726127fe565b5b021790555060808201518160000160046101000a81548160ff02191690836002811115610ba357610ba26127fe565b5b021790555060a0820151816001015590505060076000815480929190610bc890612e5a565b91905055503373ffffffffffffffffffffffffffffffffffffffff16817f1d062ce1a176b0d02c6d822fe6ce70530048d31307004a77ceee5c275ef3b3b160405160405180910390a350505050505050565b600080600960008473ffffffffffffffffffffffffffffffffffffffff1673ffffffffffffffffffffffffffffffffffffffff16815260200190815260200160002054905060008103610c71576000915050610d9b565b6000600860008381526020019081526020016000206040518060c00160405290816000820160009054906101000a900460ff161515151581526020016000820160019054906101000a900460ff161515151581526020016000820160029054906101000a900460ff166002811115610cec57610ceb6127fe565b5b6002811115610cfe57610cfd6127fe565b5b81526020016000820160039054906101000a900460ff166002811115610d2757610d266127fe565b5b6002811115610d3957610d386127fe565b5b81526020016000820160049054906101000a900460ff166002811115610d6257610d616127fe565b5b6002811115610d7457610d736127fe565b5b8152602001600182015481525050905080602001518015610d96575080600001515b925050505b919050565b610dbb838383604051806020016040528060008152506110f0565b505050565b6000610dcb826113c0565b9050919050565b60008073ffffffffffffffffffffffffffffffffffffffff168273ffffffffffffffffffffffffffffffffffffffff1603610e455760006040517f89c62b64000000000000000000000000000000000000000000000000000000008152600401610e3c91906124f4565b60405180910390fd5b600360008373ffffffffffffffffffffffffffffffffffffffff1673ffffffffffffffffffffffffffffffffffffffff168152602001908152602001600020549050919050565b610e9461149f565b610e9e600061175e565b565b610ea861225f565b610eb182611824565b610ef0576040517f08c379a0000000000000000000000000000000000000000000000000000000008152600401610ee790612f14565b60405180910390fd5b600860008381526020019081526020016000206040518060c00160405290816000820160009054906101000a900460ff161515151581526020016000820160019054906101000a900460ff161515151581526020016000820160029054906101000a900460ff166002811115610f6957610f686127fe565b5b6002811115610f7b57610f7a6127fe565b5b81526020016000820160039054906101000a900460ff166002811115610fa457610fa36127fe565b5b6002811115610fb657610fb56127fe565b5b81526020016000820160049054906101000a900460ff166002811115610fdf57610fde6127fe565b5b6002811115610ff157610ff06127fe565b5b81526020016001820154815250509050919050565b6000600660009054906101000a900473ffffffffffffffffffffffffffffffffffffffff16905090565b60606001805461103f90612c9f565b80601f016020809104026020016040519081016040528092919081815260200182805461106b90612c9f565b80156110b85780601f1061108d576101008083540402835291602001916110b8565b820191906000526020600020905b81548152906001019060200180831161109b57829003601f168201915b5050505050905090565b6110d46110cd611485565b8383611865565b5050565b60096020528060005260406000206000915090505481565b6110fb848484610885565b611107848484846119d4565b50505050565b6060611118826113c0565b506000611123611b8b565b90506000815111611143576040518060200160405280600081525061116e565b8061114d84611ba2565b60405160200161115e929190612f70565b6040516020818303038152906040525b915050919050565b6000600560008473ffffffffffffffffffffffffffffffffffffffff1673ffffffffffffffffffffffffffffffffffffffff16815260200190815260200160002060008373ffffffffffffffffffffffffffffffffffffffff1673ffffffffffffffffffffffffffffffffffffffff16815260200190815260200160002060009054906101000a900460ff16905092915050565b60086020528060005260406000206000915090508060000160009054906101000a900460ff16908060000160019054906101000a900460ff16908060000160029054906101000a900460ff16908060000160039054906101000a900460ff16908060000160049054906101000a900460ff16908060010154905086565b61128f61149f565b600073ffffffffffffffffffffffffffffffffffffffff168173ffffffffffffffffffffffffffffffffffffffff16036113015760006040517f1e4fbdf70000000000000000000000000000000000000000000000000000000081526004016112f891906124f4565b60405180910390fd5b61130a8161175e565b50565b6000600960008373ffffffffffffffffffffffffffffffffffffffff1673ffffffffffffffffffffffffffffffffffffffff168152602001908152602001600020549050919050565b60007f01ffc9a7000000000000000000000000000000000000000000000000000000007bffffffffffffffffffffffffffffffffffffffffffffffffffffffff1916827bffffffffffffffffffffffffffffffffffffffffffffffffffffffff1916149050919050565b6000806113cc83611c70565b9050600073ffffffffffffffffffffffffffffffffffffffff168173ffffffffffffffffffffffffffffffffffffffff160361143f57826040517f7e27328900000000000000000000000000000000000000000000000000000000815260040161143691906127d4565b60405180910390fd5b80915050919050565b60006004600083815260200190815260200160002060009054906101000a900473ffffffffffffffffffffffffffffffffffffffff169050919050565b600033905090565b61149a8383836001611cad565b505050565b6114a7611485565b73ffffffffffffffffffffffffffffffffffffffff166114c5611006565b73ffffffffffffffffffffffffffffffffffffffff1614611524576114e8611485565b6040517f118cdaa700000000000000000000000000000000000000000000000000000000815260040161151b91906124f4565b60405180910390fd5b565b60008061153284611c70565b9050600073ffffffffffffffffffffffffffffffffffffffff168373ffffffffffffffffffffffffffffffffffffffff161461157457611573818486611e72565b5b600073ffffffffffffffffffffffffffffffffffffffff168173ffffffffffffffffffffffffffffffffffffffff1614611605576115b6600085600080611cad565b6001600360008373ffffffffffffffffffffffffffffffffffffffff1673ffffffffffffffffffffffffffffffffffffffff168152602001908152602001600020600082825403925050819055505b600073ffffffffffffffffffffffffffffffffffffffff168573ffffffffffffffffffffffffffffffffffffffff1614611688576001600360008773ffffffffffffffffffffffffffffffffffffffff1673ffffffffffffffffffffffffffffffffffffffff168152602001908152602001600020600082825401925050819055505b846002600086815260200190815260200160002060006101000a81548173ffffffffffffffffffffffffffffffffffffffff021916908373ffffffffffffffffffffffffffffffffffffffff160217905550838573ffffffffffffffffffffffffffffffffffffffff168273ffffffffffffffffffffffffffffffffffffffff167fddf252ad1be2c89b69c2b068fc378daa952ba7f163c4a11628f55a4df523b3ef60405160405180910390a4809150509392505050565b61175a828260405180602001604052806000815250611f36565b5050565b6000600660009054906101000a900473ffffffffffffffffffffffffffffffffffffffff16905081600660006101000a81548173ffffffffffffffffffffffffffffffffffffffff021916908373ffffffffffffffffffffffffffffffffffffffff1602179055508173ffffffffffffffffffffffffffffffffffffffff168173ffffffffffffffffffffffffffffffffffffffff167f8be0079c531659141344cd1fd0a4f28419497f9722a3daafe3b4186f6b6457e060405160405180910390a35050565b60008073ffffffffffffffffffffffffffffffffffffffff1661184683611c70565b73ffffffffffffffffffffffffffffffffffffffff1614159050919050565b600073ffffffffffffffffffffffffffffffffffffffff168273ffffffffffffffffffffffffffffffffffffffff16036118d657816040517f5b08ba180000000000000000000000000000000000000000000000000000000081526004016118cd91906124f4565b60405180910390fd5b80600560008573ffffffffffffffffffffffffffffffffffffffff1673ffffffffffffffffffffffffffffffffffffffff16815260200190815260200160002060008473ffffffffffffffffffffffffffffffffffffffff1673ffffffffffffffffffffffffffffffffffffffff16815260200190815260200160002060006101000a81548160ff0219169083151502179055508173ffffffffffffffffffffffffffffffffffffffff168373ffffffffffffffffffffffffffffffffffffffff167f17307eab39ab6107e8899845ad3d59bd9653f200f220920489ca2b5937696c31836040516119c79190612383565b60405180910390a3505050565b60008373ffffffffffffffffffffffffffffffffffffffff163b1115611b85578273ffffffffffffffffffffffffffffffffffffffff1663150b7a02611a18611485565b8685856040518563ffffffff1660e01b8152600401611a3a9493929190612fe9565b6020604051808303816000875af1925050508015611a7657506040513d601f19601f82011682018060405250810190611a73919061304a565b60015b611afa573d8060008114611aa6576040519150601f19603f3d011682016040523d82523d6000602084013e611aab565b606091505b506000815103611af257836040517f64a0ae92000000000000000000000000000000000000000000000000000000008152600401611ae991906124f4565b60405180910390fd5b805181602001fd5b63150b7a0260e01b7bffffffffffffffffffffffffffffffffffffffffffffffffffffffff1916817bffffffffffffffffffffffffffffffffffffffffffffffffffffffff191614611b8357836040517f64a0ae92000000000000000000000000000000000000000000000000000000008152600401611b7a91906124f4565b60405180910390fd5b505b50505050565b606060405180602001604052806000815250905090565b606060006001611bb184611f52565b01905060008167ffffffffffffffff811115611bd057611bcf6129f4565b5b6040519080825280601f01601f191660200182016040528015611c025781602001600182028036833780820191505090505b509050600082602001820190505b600115611c65578080600190039150507f3031323334353637383961626364656600000000000000000000000000000000600a86061a8153600a8581611c5957611c58613077565b5b04945060008503611c10575b819350505050919050565b60006002600083815260200190815260200160002060009054906101000a900473ffffffffffffffffffffffffffffffffffffffff169050919050565b8080611ce65750600073ffffffffffffffffffffffffffffffffffffffff168273ffffffffffffffffffffffffffffffffffffffff1614155b15611e1a576000611cf6846113c0565b9050600073ffffffffffffffffffffffffffffffffffffffff168373ffffffffffffffffffffffffffffffffffffffff1614158015611d6157508273ffffffffffffffffffffffffffffffffffffffff168173ffffffffffffffffffffffffffffffffffffffff1614155b8015611d745750611d728184611176565b155b15611db657826040517fa9fbf51f000000000000000000000000000000000000000000000000000000008152600401611dad91906124f4565b60405180910390fd5b8115611e1857838573ffffffffffffffffffffffffffffffffffffffff168273ffffffffffffffffffffffffffffffffffffffff167f8c5be1e5ebec7d5bd14f71427d1e84f3dd0314c0f7b2291e5b200ac8c7c3b92560405160405180910390a45b505b836004600085815260200190815260200160002060006101000a81548173ffffffffffffffffffffffffffffffffffffffff021916908373ffffffffffffffffffffffffffffffffffffffff16021790555050505050565b611e7d8383836120a5565b611f3157600073ffffffffffffffffffffffffffffffffffffffff168373ffffffffffffffffffffffffffffffffffffffff1603611ef257806040517f7e273289000000000000000000000000000000000000000000000000000000008152600401611ee991906127d4565b60405180910390fd5b81816040517f177e802f000000000000000000000000000000000000000000000000000000008152600401611f289291906130a6565b60405180910390fd5b505050565b611f408383612166565b611f4d60008484846119d4565b505050565b600080600090507a184f03e93ff9f4daa797ed6e38ed64bf6a1f0100000000000000008310611fb0577a184f03e93ff9f4daa797ed6e38ed64bf6a1f0100000000000000008381611fa657611fa5613077565b5b0492506040810190505b6d04ee2d6d415b85acef81000000008310611fed576d04ee2d6d415b85acef81000000008381611fe357611fe2613077565b5b0492506020810190505b662386f26fc10000831061201c57662386f26fc10000838161201257612011613077565b5b0492506010810190505b6305f5e1008310612045576305f5e100838161203b5761203a613077565b5b0492506008810190505b612710831061206a5761271083816120605761205f613077565b5b0492506004810190505b6064831061208d576064838161208357612082613077565b5b0492506002810190505b600a831061209c576001810190505b80915050919050565b60008073ffffffffffffffffffffffffffffffffffffffff168373ffffffffffffffffffffffffffffffffffffffff161415801561215d57508273ffffffffffffffffffffffffffffffffffffffff168473ffffffffffffffffffffffffffffffffffffffff16148061211e575061211d8484611176565b5b8061215c57508273ffffffffffffffffffffffffffffffffffffffff1661214483611448565b73ffffffffffffffffffffffffffffffffffffffff16145b5b90509392505050565b600073ffffffffffffffffffffffffffffffffffffffff168273ffffffffffffffffffffffffffffffffffffffff16036121d85760006040517f64a0ae920000000000000000000000000000000000000000000000000000000081526004016121cf91906124f4565b60405180910390fd5b60006121e683836000611526565b9050600073ffffffffffffffffffffffffffffffffffffffff168173ffffffffffffffffffffffffffffffffffffffff161461225a5760006040517f73c6ac6e00000000000000000000000000000000000000000000000000000000815260040161225191906124f4565b60405180910390fd5b505050565b6040518060c00160405280600015158152602001600015158152602001600060028111156122905761228f6127fe565b5b8152602001600060028111156122a9576122a86127fe565b5b8152602001600060028111156122c2576122c16127fe565b5b8152602001600081525090565b6000604051905090565b600080fd5b600080fd5b60007fffffffff0000000000000000000000000000000000000000000000000000000082169050919050565b612318816122e3565b811461232357600080fd5b50565b6000813590506123358161230f565b92915050565b600060208284031215612351576123506122d9565b5b600061235f84828501612326565b91505092915050565b60008115159050919050565b61237d81612368565b82525050565b60006020820190506123986000830184612374565b92915050565b600081519050919050565b600082825260208201905092915050565b60005b838110156123d85780820151818401526020810190506123bd565b60008484015250505050565b6000601f19601f8301169050919050565b60006124008261239e565b61240a81856123a9565b935061241a8185602086016123ba565b612423816123e4565b840191505092915050565b6000602082019050818103600083015261244881846123f5565b905092915050565b6000819050919050565b61246381612450565b811461246e57600080fd5b50565b6000813590506124808161245a565b92915050565b60006020828403121561249c5761249b6122d9565b5b60006124aa84828501612471565b91505092915050565b600073ffffffffffffffffffffffffffffffffffffffff82169050919050565b60006124de826124b3565b9050919050565b6124ee816124d3565b82525050565b600060208201905061250960008301846124e5565b92915050565b612518816124d3565b811461252357600080fd5b50565b6000813590506125358161250f565b92915050565b60008060408385031215612552576125516122d9565b5b600061256085828601612526565b925050602061257185828601612471565b9150509250929050565b61258481612368565b811461258f57600080fd5b50565b6000813590506125a18161257b565b92915050565b600381106125b457600080fd5b50565b6000813590506125c6816125a7565b92915050565b600381106125d957600080fd5b50565b6000813590506125eb816125cc565b92915050565b600381106125fe57600080fd5b50565b600081359050612610816125f1565b92915050565b600080600080600080600060e0888a031215612635576126346122d9565b5b60006126438a828b01612526565b97505060206126548a828b01612592565b96505060406126658a828b01612592565b95505060606126768a828b016125b7565b94505060806126878a828b016125dc565b93505060a06126988a828b01612601565b92505060c06126a98a828b01612471565b91505092959891949750929550565b6000806000606084860312156126d1576126d06122d9565b5b60006126df86828701612526565b93505060206126f086828701612526565b925050604061270186828701612471565b9150509250925092565b60008060008060008060c08789031215612728576127276122d9565b5b600061273689828a01612592565b965050602061274789828a01612592565b955050604061275889828a016125b7565b945050606061276989828a016125dc565b935050608061277a89828a01612601565b92505060a061278b89828a01612471565b9150509295509295509295565b6000602082840312156127ae576127ad6122d9565b5b60006127bc84828501612526565b91505092915050565b6127ce81612450565b82525050565b60006020820190506127e960008301846127c5565b92915050565b6127f881612368565b82525050565b7f4e487b7100000000000000000000000000000000000000000000000000000000600052602160045260246000fd5b6003811061283e5761283d6127fe565b5b50565b600081905061284f8261282d565b919050565b600061285f82612841565b9050919050565b61286f81612854565b82525050565b60038110612886576128856127fe565b5b50565b600081905061289782612875565b919050565b60006128a782612889565b9050919050565b6128b78161289c565b82525050565b600381106128ce576128cd6127fe565b5b50565b60008190506128df826128bd565b919050565b60006128ef826128d1565b9050919050565b6128ff816128e4565b82525050565b61290e81612450565b82525050565b60c08201600082015161292a60008501826127ef565b50602082015161293d60208501826127ef565b5060408201516129506040850182612866565b50606082015161296360608501826128ae565b50608082015161297660808501826128f6565b5060a082015161298960a0850182612905565b50505050565b600060c0820190506129a46000830184612914565b92915050565b600080604083850312156129c1576129c06122d9565b5b60006129cf85828601612526565b92505060206129e085828601612592565b9150509250929050565b600080fd5b600080fd5b7f4e487b7100000000000000000000000000000000000000000000000000000000600052604160045260246000fd5b612a2c826123e4565b810181811067ffffffffffffffff82111715612a4b57612a4a6129f4565b5b80604052505050565b6000612a5e6122cf565b9050612a6a8282612a23565b919050565b600067ffffffffffffffff821115612a8a57612a896129f4565b5b612a93826123e4565b9050602081019050919050565b82818337600083830152505050565b6000612ac2612abd84612a6f565b612a54565b905082815260208101848484011115612ade57612add6129ef565b5b612ae9848285612aa0565b509392505050565b600082601f830112612b0657612b056129ea565b5b8135612b16848260208601612aaf565b91505092915050565b60008060008060808587031215612b3957612b386122d9565b5b6000612b4787828801612526565b9450506020612b5887828801612526565b9350506040612b6987828801612471565b925050606085013567ffffffffffffffff811115612b8a57612b896122de565b5b612b9687828801612af1565b91505092959194509250565b60008060408385031215612bb957612bb86122d9565b5b6000612bc785828601612526565b9250506020612bd885828601612526565b9150509250929050565b612beb81612854565b82525050565b612bfa8161289c565b82525050565b612c09816128e4565b82525050565b600060c082019050612c246000830189612374565b612c316020830188612374565b612c3e6040830187612be2565b612c4b6060830186612bf1565b612c586080830185612c00565b612c6560a08301846127c5565b979650505050505050565b7f4e487b7100000000000000000000000000000000000000000000000000000000600052602260045260246000fd5b60006002820490506001821680612cb757607f821691505b602082108103612cca57612cc9612c70565b5b50919050565b7f4e6562756c6149443a205573657220646f6573206e6f74206861766520616e2060008201527f4e46540000000000000000000000000000000000000000000000000000000000602082015250565b6000612d2c6023836123a9565b9150612d3782612cd0565b604082019050919050565b60006020820190508181036000830152612d5b81612d1f565b9050919050565b6000606082019050612d7760008301866124e5565b612d8460208301856127c5565b612d9160408301846124e5565b949350505050565b7f4e6562756c6149443a205573657220616c72656164792068617320616e204e4660008201527f5400000000000000000000000000000000000000000000000000000000000000602082015250565b6000612df56021836123a9565b9150612e0082612d99565b604082019050919050565b60006020820190508181036000830152612e2481612de8565b9050919050565b7f4e487b7100000000000000000000000000000000000000000000000000000000600052601160045260246000fd5b6000612e6582612450565b91507fffffffffffffffffffffffffffffffffffffffffffffffffffffffffffffffff8203612e9757612e96612e2b565b5b600182019050919050565b7f4e6562756c6149443a204964656e7469747920646f6573206e6f74206578697360008201527f7400000000000000000000000000000000000000000000000000000000000000602082015250565b6000612efe6021836123a9565b9150612f0982612ea2565b604082019050919050565b60006020820190508181036000830152612f2d81612ef1565b9050919050565b600081905092915050565b6000612f4a8261239e565b612f548185612f34565b9350612f648185602086016123ba565b80840191505092915050565b6000612f7c8285612f3f565b9150612f888284612f3f565b91508190509392505050565b600081519050919050565b600082825260208201905092915050565b6000612fbb82612f94565b612fc58185612f9f565b9350612fd58185602086016123ba565b612fde816123e4565b840191505092915050565b6000608082019050612ffe60008301876124e5565b61300b60208301866124e5565b61301860408301856127c5565b818103606083015261302a8184612fb0565b905095945050505050565b6000815190506130448161230f565b92915050565b6000602082840312156130605761305f6122d9565b5b600061306e84828501613035565b91505092915050565b7f4e487b7100000000000000000000000000000000000000000000000000000000600052601260045260246000fd5b60006040820190506130bb60008301856124e5565b6130c860208301846127c5565b939250505056fea2646970667358221220591662534585dcbab3a9fab999371610683f9cec17e04c6ab4669aa069b0f62664736f6c63430008170033",
  "linkReferences": {},
  "deployedLinkReferences": {}
}